:020000040800F2
:1000000000100020B50100080502000805020008E4
:1000100000000000000000000000000000000000E0
:1000200000000000000000000000000005020008C1
:1000300000000000000000000502000805020008A2
:100040000502000800000000050200080502000883
:100050000502000805020008050200080502000864
:100060000000000005020008050200080502000863
:100070000502000805020008050200080000000053
:100080000502000800000000000000000502000852
:100090000000000005020008050200080502000833
:1000A0000000000005020008000000000502000832
:1000B0000000000000000000000000000000000040
:1000C0007047C04670B50C4D0C4E761BB61005D06F
:1000D000002408CD01349847A642FAD1FFF7F0FF7B
:1000E000074D084E761BB61005D0002408CD01340C
:1000F0009847A642FAD170BD08020008080200081D
:1001000008020008080200088023114A9B02516976
:1001100010B50B43536190220321D20513680124CB
:100120008B431360136802390B43FA21002082B01D
:10013000136049015369634053610190019B8B42F5
:10014000F8DA019B01330193019B8B42F9DBF1E764
:1001500000100240114B1A6801210A431A605868C6
:100160000F4A02405A6018680E4A02401A60186826
:100170000D4A02401A6058680C4A02405A60DA6A16
:100180000F208243DA62186B094A02401A635A6BE5
:100190008A435A6300229A607047C04600100240AA
:1001A0000CB8FF08FFFFF6FEFFFFFBFFFFFFC0FFDD
:1001B000ECFEFFFF0D488546002103E00C4B5B5829
:1001C000435004310B480C4B42189A42F6D30B4A69
:1001D00002E0002313600432094B9A42F9D3FFF77F
:1001E000B9FFFFF76FFFFFF78FFFFEE7001000205A
:1001F000080200080000002000000020000000208D
:0802000000000020FEE70000F1
:04000005080001B539
:00000001FF
