:020000040800F2
:1000000000000120E504000835050008350500085A
:10001000350500083505000835050008000000001A
:10002000000000000000000000000000350500088E
:1000300035050008000000003505000835050008FA
:1000400035050008350500083505000835050008A8
:100050003505000835050008350500083505000898
:100060003505000835050008350500083505000888
:100070003505000835050008350500083505000878
:1000800035050008350500083505000800000000AA
:10009000000000000000000000000000350500081E
:1000A0003505000835050008350500083505000848
:1000B0003505000835050008350500083505000838
:1000C0003505000835050008350500083505000828
:1000D000350500083505000835050008000000005A
:1000E000350500083505000835050008000000004A
:1000F00000000000000000000000000035050008BE
:100100000000000035050008350500083505000829
:1001100000000000000000000000000000000000DF
:1001200035050008350500083505000835050008C7
:10013000350500080000000000000000000000007D
:10014000000000000000000000000000350500086D
:100150003505000835050008350500083505000897
:10016000350500083505000800000000000000000B
:10017000000000000000000000000000000000007F
:10018000000000003505000800000000000000002D
:040190003505000829
:100194000348044B834202D0034B03B11847704712
:1001A4000000002000000020000000000548064B6D
:1001B4001B1AD90F01EBA301491002D0034B03B161
:1001C40018477047000000200000002000000000D5
:1001D40010B5064C237843B9FFF7DAFF044B13B18B
:1001E4000448AFF300800123237010BD00000020F9
:1001F400000000008005000808B5054B1BB1054947
:100204000548AFF30080BDE80840FFF7CFBF00BF4B
:1002140000000000040000208005000880B400AF46
:10022400194B1B68184A43F00103136000BF164BB7
:100234001B6803F00203002BF9D0134B00229A60D1
:10024400114B1B68104A23F0807313600E4B9B689C
:100254000D4A23F0030393600B4B0B4A9B68936096
:1002640000BF094B9B6803F00C03002BF9D1064B2C
:100274001B68054A23F0847323F48033136000BFA2
:10028400BD4680BC704700BF0038024080B582B0D4
:1002940000AF00F0FDF800F03FF81B4B1B6B1A4A4F
:1002A40043F002031363194B1B68184A23F47F734A
:1002B4001360164B1B68154A43F040031360144B3C
:1002C4001B68134A43F080431360104BDB680F4AEA
:1002D40043F00403D360412000F08AF80D4A3B4602
:1002E40092E8030018600433198002330A0C1A7070
:1002F40000F0A6F800F092F80346452BEBD13B46FC
:10030400184600F0AFF8E6E7003802400004024067
:10031400000002409805000880B483B000AF304B61
:100324001B6B2F4A43F0010313632D4B5B6C2C4A68
:1003340043F0100353642B4B1B682A4A23F44023D5
:100344001360284B1B68274A43F400231360254B92
:100354001B68244A23F440131360224B1B68214A70
:1003640043F4001313601F4B5B681E4A23F4C063FD
:1003740053601C4B9B681B4A43F420139360194B36
:100384005B6A184A23F47F635362164B5B6A154A0F
:1003940043F4EE635362144B0022DA60124B0022E2
:1003A4001A61114B00225A61104B7B604FF41653B3
:1003B4003B603B685A087B681A443B68B2FBF3F322
:1003C4009AB2094B9A60084BDB68074A43F400531E
:1003D40043F00C03D36000BF0C37BD4680BC7047AC
:1003E40000380240000002400010014000127A0070
:1003F40080B483B000AF0346FB7100BF064B1B689B
:1004040003F08003002BF9D0034AFB79536000BF4B
:100414000C37BD4680BC70470010014080B400AF6B
:1004240000BF064B1B6803F02003002BF9D0034BDD
:100434005B68DBB21846BD4680BC704700100140C3
:1004440080B500AF064B1B6803F02003002B05D0DA
:10045400034B5B68DBB21846FFF7CAFF00BF80BDE1
:100464000010014080B582B000AF786006E07B6880
:100474005A1C7A601B781846FFF7BAFF7B681B7812
:10048400002BF4D100BF00BF0837BD4680BD00007B
:1004940080B400AF114B1B68104A43F00103136092
:1004A40000BF0E4B1B6803F00203002BF9D00B4B6B
:1004B4001B680A4A23F003031360084B074A9B682E
:1004C400936000BF054B9B6803F00C03002BF9D12C
:1004D40000BF00BFBD4680BC704700BF003802406B
:1004E400DFF834D0FFF79AFE0C480D490D4A00237B
:1004F40002E0D458C4500433C4188C42F9D30A4AD5
:100504000A4C002301E013600432A242FBD300F042
:1005140011F8FFF7BBFE7047000001200000002027
:1005240000000020A8050008000000201C00002096
:10053400FEE7000070B50D4B0D4D5B1B9C100026B3
:10054400A64209D100F01AF80A4D0B4B5B1B9C1014
:100554000026A64205D170BD55F8043B98470136E4
:10056400EEE755F8043B98470136F2E7A00500088A
:10057400A0050008A0050008A4050008F8B500BF00
:10058400F8BC08BC9E467047F8B500BFF8BC08BC70
:040594009E467047C8
:08059800737472696E670000C4
:0405A000FD01000851
:0405A400D501000875
:04000005080004E506
:00000001FF
