:020000040800F2
:1000000000100020A9040008F5040008F504000809
:1000100000000000000000000000000000000000E0
:10002000000000000000000000000000F5040008CF
:100030000000000000000000F5040008F5040008BE
:10004000F504000800000000F5040008F5040008AD
:10005000F5040008F5040008F5040008F50400089C
:1000600000000000F5040008F5040008F50400088D
:10007000F5040008F5040008F5040008000000007D
:10008000F50400080000000000000000F50400086E
:1000900000000000F5040008F5040008F50400085D
:1000A00000000000F504000800000000F50400084E
:1000B0000000000000000000000000000000000040
:1000C0000448054B10B5834203D0044B002B00D0ED
:1000D000984710BD00000020000000200000000034
:1000E00006480749091A8B10C90FC91810B54910DD
:1000F00003D0044B002B00D0984710BD0000002017
:10010000000000200000000010B5074C2378002BF1
:1001100009D1FFF7D5FF054B002B02D0044800E0C2
:1001200000BF0123237010BD00000020000000006C
:10013000F8040008054B10B5002B03D0044905480E
:1001400000E000BFFFF7CCFF10BDC046000000007C
:1001500004000020F804000870B50C4D0C4E761B0E
:10016000B61005D0002408CD01349847A642FAD134
:1001700000F0C2F9074D084E761BB61005D00024DA
:1001800008CD01349847A642FAD170BD1005000889
:100190001005000810050008140500080022430897
:1001A0008B4274D303098B425FD3030A8B4244D33F
:1001B000030B8B4228D3030C8B420DD3FF22090281
:1001C00012BA030C8B4202D31212090265D0030B40
:1001D0008B4219D300E0090AC30B8B4201D3CB0336
:1001E000C01A5241830B8B4201D38B03C01A524178
:1001F000430B8B4201D34B03C01A5241030B8B427A
:1002000001D30B03C01A5241C30A8B4201D3CB0264
:10021000C01A5241830A8B4201D38B02C01A524149
:10022000430A8B4201D34B02C01A5241030A8B424C
:1002300001D30B02C01A5241CDD2C3098B4201D364
:10024000CB01C01A524183098B4201D38B01C01AE2
:10025000524143098B4201D34B01C01A5241030959
:100260008B4201D30B01C01A5241C3088B4201D308
:10027000CB00C01A524183088B4201D38B00C01AB5
:10028000524143088B4201D34B00C01A5241411ADC
:1002900000D20146524110467047FFE701B50020E9
:1002A00000F006F802BDC0460029F7D076E7704797
:1002B0007047C04690B583B000AF374B5A69364B94
:1002C000802189020A435A61334B9A69324B80215B
:1002D000C9010A439A619023DB051A689023DB0564
:1002E00030218A431A609023DB051A689023DB05CE
:1002F00020210A431A609023DB051A689023DB054E
:10030000C0218A431A609023DB051A689023DB051D
:1003100080210A431A609023DB055A689023DB058D
:100320000C218A435A609023DB059A689023DB05F1
:10033000A0210A439A609023DB051A6A9023DB050B
:1003400016490A401A629023DB051A6A9023DB05DE
:10035000882149010A431A62114B00221A60104B8E
:1003600000225A600E4B00229A600E4B7B6096234F
:100370009B013B600A4C39687868FFF70FFF030068
:10038000E360074B1A68064B0D210A431A60C0460A
:10039000BD4603B090BDC04600100240FF00FFFF05
:1003A0000038014000127A0080B582B000AF020030
:1003B000FB1D1A70C046074BDB6980221340FAD040
:1003C000044AFB1D1B789BB21385C046BD4602B094
:1003D00080BDC0460038014080B500AFC046064B26
:1003E000DB6920221340FAD0034B9B8C9BB2DBB21B
:1003F0001800BD4680BDC0460038014080B500AF42
:10040000FFF758FF244B5A69234B8021C9020A4346
:100410005A61224B1A68214B21490A401A601F4B2E
:100420001A681E4B40210A431A609023DB051A68A4
:100430009023DB058021C9050A431A60174BDA684F
:10044000164B04210A43DA604120FFF7ADFFFFF7A6
:10045000C3FF0300452B0FD19023DB055A6990237E
:10046000DB05802109020A435A610C4B5A690B4B88
:1004700008218A435A61E7E79023DB055A699023F4
:10048000DB0508490A405A61044B5A69034B0821AD
:100490000A435A61D8E7C0460010024000040048F1
:1004A00003FCFFFFFF7FFFFF0C4885460C480D490A
:1004B0000D4A002302E0D458C4500433C4188C42BF
:1004C000F9D30A4A0A4C002301E013600432A24225
:1004D000FBD3FFF741FEFFF791FFFEE7001000207E
:1004E0000000002000000020180500080000002087
:1004F0001C000020FEE70000F8B5C046F8BC08BCB0
:100500009E467047F8B5C046F8BC08BC9E4670478A
:0405100035010008A9
:0405140009010008D1
:04000005080004A942
:00000001FF
