:020000040800F2
:1000000000100020F10100083D0200083D02000838
:1000100000000000000000000000000000000000E0
:100020000000000000000000000000003D02000889
:1000300000000000000000003D0200083D02000832
:100040003D020008000000003D0200083D020008DB
:100050003D0200083D0200083D0200083D02000884
:10006000000000003D0200083D0200083D020008BB
:100070003D0200083D0200083D02000800000000AB
:100080003D02000800000000000000003D020008E2
:10009000000000003D0200083D0200083D0200088B
:1000A000000000003D020008000000003D020008C2
:1000B0000000000000000000000000000000000040
:1000C0000448054B10B5834203D0044B002B00D0ED
:1000D000984710BD00000020000000200000000034
:1000E00006480749091A8B10C90FC91810B54910DD
:1000F00003D0044B002B00D0984710BD0000002017
:10010000000000200000000010B5074C2378002BF1
:1001100009D1FFF7D5FF054B002B02D0044800E0C2
:1001200000BF0123237010BD00000020000000006C
:1001300040020008054B10B5002B03D004490548C8
:1001400000E000BFFFF7CCFF10BDC046000000007C
:10015000040000204002000870B50C4D0C4E761BC8
:10016000B61005D0002408CD01349847A642FAD134
:1001700000F066F8074D084E761BB61005D0002437
:1001800008CD01349847A642FAD170BD5802000844
:1001900058020008580200085C02000880B582B0CE
:1001A00000AF114B5A69104B802189020A435A61F2
:1001B0009023DB051A689023DB0501210A431A60AE
:1001C0009023DB055A699023DB0501214A405A61DF
:1001D00000237B6002E07B6801337B607B68034A1D
:1001E0009342F8D9ECE7C046001002401FB3040068
:1001F0000C4885460C480D490D4A002302E0D458AE
:10020000C4500433C4188C42F9D30A4A0A4C002360
:1002100001E013600432A242FBD3FFF79DFFFFF71A
:10022000BDFFFEE7001000200000002000000020BD
:1002300060020008000000201C000020FEE7000013
:10024000F8B5C046F8BC08BC9E467047F8B5C04635
:08025000F8BC08BC9E46704793
:040258003501000864
:04025C00090100088C
:04000005080001F1FD
:00000001FF
