:020000040800F2
:10000000001000209D050008E9050008E90500082A
:1000100000000000000000000000000000000000E0
:10002000000000000000000000000000E9050008DA
:100030000000000000000000E9050008E9050008D4
:10004000E905000800000000E9050008E9050008CE
:10005000E9050008E9050008E9050008E9050008C8
:1000600000000000E9050008E9050008E9050008AE
:10007000E9050008E9050008E9050008000000009E
:10008000E90500080000000000000000E905000884
:1000900000000000E9050008E9050008E90500087E
:1000A00000000000E905000800000000E905000864
:1000B0000000000000000000000000000000000040
:1000C0000448054B10B5834203D0044B002B00D0ED
:1000D000984710BD00000020000000200000000034
:1000E00006480749091A8B10C90FC91810B54910DD
:1000F00003D0044B002B00D0984710BD0000002017
:10010000000000200000000010B5074C2378002BF1
:1001100009D1FFF7D5FF054B002B02D0044800E0C2
:1001200000BF0123237010BD00000020000000006C
:10013000EC050008054B10B5002B03D00449054819
:1001400000E000BFFFF7CCFF10BDC046000000007C
:1001500004000020EC05000870B50C4D0C4E761B19
:10016000B61005D0002408CD01349847A642FAD134
:1001700000F03CFA074D084E761BB61005D000245F
:1001800008CD01349847A642FAD170BD0C0600088C
:100190000C0600080C0600081006000800224308A0
:1001A0008B4274D303098B425FD3030A8B4244D33F
:1001B000030B8B4228D3030C8B420DD3FF22090281
:1001C00012BA030C8B4202D31212090265D0030B40
:1001D0008B4219D300E0090AC30B8B4201D3CB0336
:1001E000C01A5241830B8B4201D38B03C01A524178
:1001F000430B8B4201D34B03C01A5241030B8B427A
:1002000001D30B03C01A5241C30A8B4201D3CB0264
:10021000C01A5241830A8B4201D38B02C01A524149
:10022000430A8B4201D34B02C01A5241030A8B424C
:1002300001D30B02C01A5241CDD2C3098B4201D364
:10024000CB01C01A524183098B4201D38B01C01AE2
:10025000524143098B4201D34B01C01A5241030959
:100260008B4201D30B01C01A5241C3088B4201D308
:10027000CB00C01A524183088B4201D38B00C01AB5
:10028000524143088B4201D34B00C01A5241411ADC
:1002900000D20146524110467047FFE701B50020E9
:1002A00000F006F802BDC0460029F7D076E7704797
:1002B0007047C04690B583B000AF00F07BF896233E
:1002C0009B01180000F09AF8364B5A69354B802193
:1002D00089020A435A61334B5A69324B8021C90261
:1002E0000A435A619023DB051A689023DB058021BD
:1002F000C9000A431A609023DB051A689023DB05C6
:10030000802149010A431A609023DB051A68902373
:10031000DB058021C9010A431A60234B1A68224B6E
:1003200022490A401A60204B1A681F4B40210A4399
:100330001A601D4BDA681C4B04210A43DA609023D3
:10034000DB055A699023DB0520210A435A61FC1D15
:1003500000F0E8F803002370FB1D1B78362B08D152
:100360009023DB055A699023DB0540210A435A613B
:10037000EDE7FB1D1B78372B08D19023DB055A696D
:100380009023DB0580210A435A61E0E7FB1D1B78BF
:10039000532B04D1064B180000F0EAF8D7E700F021
:1003A000D3F8D4E7001002400004004803FCFFFF2C
:1003B0000406000880B500AF0F4B1A680E4B0121F0
:1003C0000A431A60C0460C4B1B6802221340FAD045
:1003D000094B5A68084B03218A435A60064A064B68
:1003E00052685A60C046044B5B680C221340FAD135
:1003F000C046C046BD4680BD0010024090B585B0E5
:1004000000AF0200BB1D1A80364B5A69354B802164
:1004100089020A435A61334B9A69324B8021C901E0
:100420000A439A619023DB051A689023DB0530218B
:100430008A431A609023DB051A689023DB0520218C
:100440000A431A609023DB051A689023DB05C0215C
:100450008A431A609023DB051A689023DB0580210C
:100460000A431A609023DB055A689023DB050C21B0
:100470008A435A609023DB059A689023DB05A0210C
:100480000A439A609023DB051A6A9023DB0516491C
:100490000A401A629023DB051A6A9023DB05882143
:1004A00049010A431A62114B00221A600F4B0022C5
:1004B0005A600E4B00229A600D4BFB60BB1D1B88DF
:1004C0000A4C1900F868FFF769FE0300E360074B68
:1004D0001A68064B0D210A431A60C046BD4605B096
:1004E00090BDC04600100240FF00FFFF00380140F1
:1004F00000127A0080B582B000AF0200FB1D1A70B6
:10050000C046074BDB6980221340FAD0044AFB1D2A
:100510001B789BB21385C046BD4602B080BDC04665
:100520000038014080B500AF064BDB692022134044
:1005300004D0044B9B8C9BB2DBB2FFE71800BD4696
:1005400080BDC0460038014080B500AF074BDB6975
:100550002022134006D0054B9B8C9BB2DBB21800C7
:10056000FFF7C8FFC046BD4680BDC0460038014009
:1005700080B582B000AF786006E07B685A1C7A6074
:100580001B781800FFF7B6FF7B681B78002BF4D1AF
:10059000C046C046BD4602B080BD00000C4885463E
:1005A0000C480D490D4A002302E0D458C4500433CE
:1005B000C4188C42F9D30A4A0A4C002301E01360A4
:1005C0000432A242FBD3FFF7C7FDFFF773FEFEE73D
:1005D0000010002000000020000000201406000889
:1005E000000000201C000020FEE70000F8B5C04617
:1005F000F8BC08BC9E467047F8B5C046F8BC08BCBD
:040600009E4670475B
:08060400737472696E67000057
:04060C0035010008AC
:0406100009010008D4
:040000050800059D4D
:00000001FF
