:020000040800F2
:1000000000100020DD04000829050008290500086B
:1000100000000000000000000000000000000000E0
:10002000000000000000000000000000290500089A
:100030000000000000000000290500082905000854
:10004000290500080000000029050008290500080E
:1000500029050008290500082905000829050008C8
:1000600000000000290500082905000829050008EE
:1000700029050008290500082905000800000000DE
:100080002905000800000000000000002905000804
:1000900000000000290500082905000829050008BE
:1000A00000000000290500080000000029050008E4
:1000B0000000000000000000000000000000000040
:1000C000002243088B4274D303098B425FD3030A97
:1000D0008B4244D3030B8B4228D3030C8B420DD3AA
:1000E000FF22090212BA030C8B4202D31212090238
:1000F00065D0030B8B4219D300E0090AC30B8B4276
:1001000001D3CB03C01A5241830B8B4201D38B0323
:10011000C01A5241430B8B4201D34B03C01A5241C8
:10012000030B8B4201D30B03C01A5241C30A8B420B
:1001300001D3CB02C01A5241830A8B4201D38B02F6
:10014000C01A5241430A8B4201D34B02C01A52419A
:10015000030A8B4201D30B02C01A5241CDD2C3090C
:100160008B4201D3CB01C01A524183098B4201D388
:100170008B01C01A524143098B4201D34B01C01A73
:10018000524103098B4201D30B01C01A5241C308EB
:100190008B4201D3CB00C01A524183088B4201D35A
:1001A0008B00C01A524143088B4201D34B00C01A46
:1001B0005241411A00D20146524110467047FFE7B2
:1001C00001B5002000F006F802BDC0460029F7D0B6
:1001D00076E770477047C0460448054B10B5834228
:1001E00003D0044B002B00D0984710BD0000002026
:1001F000000000200000000006480749091A8B1083
:10020000C90FC91810B5491003D0044B002B00D0FA
:10021000984710BD000000200000002000000000F2
:1002200010B5074C2378002B09D1FFF7D5FF054BFC
:10023000002B02D0044800E000BF0123237010BD52
:10024000000000200000000074050008054B10B5F8
:10025000002B03D00449054800E000BFFFF7CCFFA6
:1002600010BDC04600000000040000207405000816
:1002700080B582B000AF00F041F800F063F81B4B8E
:100280005A691A4B8021C9020A435A61184B1A68ED
:10029000174B18490A401A60154B1A68144B402135
:1002A0000A431A609023DB051A689023DB0580213E
:1002B000C9050A431A600E4BDA680D4B04210A4344
:1002C000DA603B000C4A1168196091889980927934
:1002D0009A7100F0DFF800F0CBF80300452BF0D165
:1002E0003B00180000F0E4F8EBE7C04600100240C5
:1002F0000004004803FCFFFF8C05000880B500AF38
:100300000F4B1A680E4B01210A431A60C0460C4B72
:100310001B6802221340FAD0094B1A68084B0321CC
:100320008A431A60064A064B52685A60C046044B1C
:100330005B680C221340FAD1C046C046BD4680BD62
:100340000010024080B582B000AF394B5A69384B7B
:10035000802189020A435A61354B9A69344B8021C6
:10036000C9010A439A619023DB051A689023DB05D3
:1003700030218A431A609023DB051A689023DB053D
:1003800020210A431A609023DB051A689023DB05BD
:10039000C0218A431A609023DB051A689023DB058D
:1003A00080210A431A609023DB055A689023DB05FD
:1003B0000C218A435A609023DB059A689023DB0561
:1003C000A0210A439A609023DB051A6A9023DB057B
:1003D00018490A401A629023DB051A6A9023DB054C
:1003E000882149010A431A62134B00221A60124BFA
:1003F00000225A60104B00229A60104B7B609623BB
:100400009B013B603B685A087B68D3183968180029
:10041000FFF756FE03009AB2074BDA60064B1A68E4
:10042000054B0D210A431A60C046BD4602B080BD8F
:1004300000100240FF00FFFF0038014000127A0068
:1004400080B582B000AF0200FB1D1A70C046074B9A
:10045000DB6980221340FAD0044AFB1D1B789BB253
:100460001385C046BD4602B080BDC046003801407D
:1004700080B500AFC046064BDB6920221340FAD09E
:10048000034B9B8C9BB2DBB21800BD4680BDC046BF
:100490000038014080B500AF044B9B8C9BB2DBB2AF
:1004A0001800FFF7CDFFC046BD4680BD00380140B3
:1004B00080B582B000AF786006E07B685A1C7A6035
:1004C0001B781800FFF7BCFF7B681B78002BF4D16A
:1004D000C046C046BD4602B080BD00000C488546FF
:1004E0000C480D490D4A002302E0D458C45004338F
:1004F000C4188C42F9D30A4A0A4C002301E0136065
:100500000432A242FBD300F011F8FFF7B1FEFEE780
:100510000010002000000020000000209C050008C2
:10052000000000201C000020FEE7000070B500263F
:100530000C4C0D4D641BA410A64209D1002600F0FE
:1005400019F80A4C0A4D641BA410A64205D170BDCF
:10055000B300EB5898470136EEE7B300EB589847E5
:100560000136F2E794050008940500089805000894
:1005700094050008F8B5C046F8BC08BC9E46704714
:0C058000F8B5C046F8BC08BC9E467047A9
:08058C00737472696E670000D0
:040594004D0200080C
:040598002102000834
:04000005080004DD0E
:00000001FF
