:020000040800F2
:10000000001000204D020008990200089902000823
:1000100000000000000000000000000000000000E0
:10002000000000000000000000000000990200082D
:10003000000000000000000099020008990200087A
:1000400099020008000000009902000899020008C7
:100050009902000899020008990200089902000814
:1000600000000000990200089902000899020008A7
:100070009902000899020008990200080000000097
:10008000990200080000000000000000990200082A
:100090000000000099020008990200089902000877
:1000A000000000009902000800000000990200080A
:1000B0000000000000000000000000000000000040
:1000C0000448054B10B5834203D0044B002B00D0ED
:1000D000984710BD00000020000000200000000034
:1000E00006480749091A8B10C90FC91810B54910DD
:1000F00003D0044B002B00D0984710BD0000002017
:10010000000000200000000010B5074C2378002BF1
:1001100009D1FFF7D5FF054B002B02D0044800E0C2
:1001200000BF0123237010BD00000020000000006C
:100130009C020008054B10B5002B03D0044905486C
:1001400000E000BFFFF7CCFF10BDC046000000007C
:10015000040000209C02000870B50C4D0C4E761B6C
:10016000B61005D0002408CD01349847A642FAD134
:1001700000F094F8074D084E761BB61005D0002409
:1001800008CD01349847A642FAD170BDB4020008E8
:10019000B4020008B4020008B802000880B500AF3D
:1001A000264B5A69254B802189020A435A61234B09
:1001B0005A69224B8021C9020A435A61204B1A68AE
:1001C0001F4B20490A401A601D4B1A681C4B4021E6
:1001D0000A431A609023DB051A689023DB0580210F
:1001E000C9050A431A60164BDA68154B04210A4305
:1001F000DA60134B1B69022213400FD19023DB05F9
:100200005A699023DB05802109020A435A610C4B8D
:100210005A690B4B08218A435A61EAE79023DB05B0
:100220005A699023DB0508490A405A61044B5A6910
:10023000034B08210A435A61DBE7C0460010024025
:100240000004004803FCFFFFFF7FFFFF0C488546CA
:100250000C480D490D4A002302E0D458C450043321
:10026000C4188C42F9D30A4A0A4C002301E01360F7
:100270000432A242FBD3FFF76FFFFFF78FFFFEE7C9
:10028000001000200000002000000020BC02000838
:10029000000000201C000020FEE70000F8B5C0466A
:1002A000F8BC08BC9E467047F8B5C046F8BC08BC10
:0402B0009E467047AF
:0402B4003501000808
:0402B8000901000830
:040000050800024DA0
:00000001FF
